:100000000C945C000C9479000C9479000C947900A9
:100010000C9479000C9479000C9479000C9479007C
:100020000C9479000C9479000C9479000C9479006C
:100030000C9479000C9479000C9479000C9479005C
:100040000C9442010C9479000C9479000C94790082
:100050000C9479000C9479000C9479000C9479003C
:100060000C9479000C947900000000080002010053
:100070000003040700000000000000000102040863
:100080001020408001020408102001020408102002
:10009000040404040404040402020202020203032E
:1000A0000303030300000000250028002B000000CC
:1000B0000000240027002A0011241FBECFEFD8E043
:1000C000DEBFCDBF11E0A0E0B1E0E2E9F3E002C0A5
:1000D00005900D92A630B107D9F721E0A6E0B1E076
:1000E00001C01D92AF30B207E1F70E9433010C94BA
:1000F000C7010C940000CF93DF93C0E0D1E088816A
:10010000229661E00E94C30081E0C630D807B9F7AB
:10011000DF91CF91089561E0809100010E94FC0081
:1001200060E0809102010E94FC0060E08091040187
:100130000C94FC00833081F028F4813099F08230F7
:10014000A1F008958730A9F08830B9F08430D1F457
:10015000809180008F7D03C0809180008F77809395
:100160008000089584B58F7702C084B58F7D84BDEB
:1001700008958091B0008F7703C08091B0008F7D8B
:100180008093B0000895CF93DF9390E0FC01E45892
:10019000FF4F2491FC01E057FF4F8491882349F1E0
:1001A00090E0880F991FFC01E255FF4FA591B49193
:1001B0008C559F4FFC01C591D4919FB7611108C028
:1001C000F8948C91209582238C93888182230AC095
:1001D000623051F4F8948C91322F309583238C93B4
:1001E0008881822B888304C0F8948C91822B8C9315
:1001F0009FBFDF91CF9108950F931F93CF93DF930C
:100200001F92CDB7DEB7282F30E0F901E859FF4F34
:100210008491F901E458FF4F1491F901E057FF4F21
:1002200004910023C9F0882321F069830E949A0079
:100230006981E02FF0E0EE0FFF1FEC55FF4FA59115
:10024000B4919FB7F8948C91611103C010958123EC
:1002500001C0812B8C939FBF0F90DF91CF911F9195
:100260000F91089508950E948C010E9432010E940E
:100270007B00C0E0D0E00E948B002097E1F30E9459
:100280000000F9CF1F920F920FB60F9211242F93F7
:100290003F938F939F93AF93BF938091070190916A
:1002A0000801A0910901B0910A013091060123E0F3
:1002B000230F2D3720F40196A11DB11D05C026E89E
:1002C000230F0296A11DB11D209306018093070103
:1002D00090930801A0930901B0930A0180910B014A
:1002E00090910C01A0910D01B0910E010196A11DFC
:1002F000B11D80930B0190930C01A0930D01B0935D
:100300000E01BF91AF919F918F913F912F910F90CF
:100310000FBE0F901F901895789484B5826084BDAD
:1003200084B5816084BD85B5826085BD85B58160F9
:1003300085BDEEE6F0E0808181608083E1E8F0E059
:100340001082808182608083808181608083E0E888
:10035000F0E0808181608083E1EBF0E08081846067
:100360008083E0EBF0E0808181608083EAE7F0E069
:1003700080818460808380818260808380818160CD
:1003800080838081806880831092C1000895F894F2
:02039000FFCF9D
:060392000D000C000B0041
:00000001FF
